:100000000C9446000C9450000C9450000C9450003A
:100010000C9450000C9450000C9450000C94500020
:100020000C9450000C9450000C9450000C94500010
:100030000C9450000C9450000C9450000C94500000
:100040000C9450000C9450000C9450000C945000F0
:100050000C9450000C9450000C9450000C945000E0
:100060000C9450000C9450000C9450000C945000D0
:100070000C9450000C9450000C9450000C945000C0
:100080000C9450000C9450000C94500011241FBE8E
:10009000CFEFD0E4DEBFCDBF0E94C5000C94E300DB
:1000A0000C94000040E050E00CC000002F5F3F4F78
:1000B00002C020E030E0273063E03607B4F34F5F42
:1000C0005F4F48175907ACF308955E9888B95F9A57
:1000D00000005F9882E090E00E945200089581E065
:1000E0000E9465000895813120F481580E946500C6
:1000F000089581550E946500089584E690E00E946D
:10010000520088E30E94650086E00E9465008FE04F
:100110000E94650081E00E9465008AE090E00E94F4
:10012000520008955E9A88B95F9A00005F9881E056
:1001300090E00E9452000895EF92FF920F931F9358
:10014000CF93DF93182FEB010E946F000EC001E0E8
:10015000010F812F0E9473007E018FEFE81AF80AC9
:1001600088810E949200102FE70188818111EFCFD2
:10017000DF91CF911F910F91FF90EF900895EAE7E3
:10018000F0E08081806E8083089511B88FEF82B98E
:100190008AB91BB884B915B80E94BF0020E233E0C9
:1001A00080917800909179002817390708F49C0114
:1001B000A901569547958417950710F080E001C076
:0A01C00081E085B9EDCFF894FFCF80
:00000001FF
