:100000000C944E000C946D000C946D000C946D00DB
:100010000C946D000C946D000C946D000C946D00AC
:100020000C946D000C946D000C946D000C946D009C
:100030000C946D000C946D000C946D000C946D008C
:100040000C946D000C946D000C946D000C946D007C
:100050000C946D000C946D000C946D000C946D006C
:100060000C946D000C946D000C946D000C946D005C
:100070000C946D000C946D000C946D000C946D004C
:100080000C946D000C946D000C946D006C017A0161
:100090007A018A01BA01C101D101D80111241FBE20
:1000A000CFEFD0E4DEBFCDBF11E0A0E0B1E0ECE6E1
:1000B000F7E000E00BBF02C007900D92A232B1073B
:1000C000D9F711E0A2E2B1E001C01D92A932B10757
:1000D000E1F70E9424020C94B4030C94000040E069
:1000E00050E00CC000002F5F3F4F02C020E030E026
:1000F000273063E03607B4F34F5F5F4F4817590767
:10010000ACF308955E9888B95F9A00005F9882E02A
:1001100090E00E946F00089581E00E94820008959F
:10012000813120F481580E948200089581550E94F7
:100130008200089584E690E00E946F0088E30E94A8
:10014000820086E00E9482008FE00E94820081E0AF
:100150000E9482008AE090E00E946F0008955E9AFB
:1001600088B95F9A00005F9881E090E00E946F007C
:100170000895EF92FF920F931F93CF93DF93182F61
:10018000EB010E948C000EC001E0010F812F0E9444
:1001900090007E018FEFE81AF80A88810E94AF0074
:1001A000102FE70188818111EFCFDF91CF911F914F
:1001B0000F91FF90EF900895CF92DF92EF92FF9210
:1001C0006B017C0120912301309124014091250194
:1001D000509126010E943B02882309F456C020E07A
:1001E00030E0A901C701B6010E943B02811106C09F
:1001F000E1E9F0E080818870808303C085B5836089
:1002000085BD28E539E344E75FE3C701B6010E94F5
:100210003B0288233CF48FEF9FEF909399008093EB
:10022000980027C020E034E244EF56E4C701B6014D
:100230000E944D0318162CF4109299001092980009
:1002400018C020E030E040E053E4C701B6010E944E
:1002500051039B01AC0160E074E284EF9AE40E94D8
:100260003F020E94A7026150710970939900609348
:1002700098001092950010929400C0922301D092A1
:100280002401E0922501F0922601FF90EF90DF908B
:10029000CF90089580E4809390008BE0809391004C
:1002A00060E070E0CB010E94DC00089510929000A5
:1002B00010929100089580B18095877080932201FB
:1002C000E0912701F0912801E830F10508F07FC0A6
:1002D000EA5BFF4F0C943202813039F482E090E007
:1002E000909328018093270172C0109228011092E8
:1002F00027016DC0813039F482E090E090932801AD
:100300008093270164C083E090E09093280180935C
:1003100027015DC0823071F480910001882319F0BB
:1003200081508093000186E090E0909328018093B3
:1003300027014DC0843071F480910001873018F49A
:100340008F5F8093000184E090E090932801809378
:1003500027013DC0813039F481E090E0909328017D
:100360008093270134C083E090E09093280180932C
:1003700027012DC085E090E090932801809327010C
:1003800026C0823039F485E090E090932801809374
:1003900027011DC083E090E09093280180932701FE
:1003A00016C087E090E090932801809327010FC04A
:1003B000843039F487E090E09093280180932701FE
:1003C00006C083E090E090932801809327018091FC
:1003D0002701909128018330910599F028F4009726
:1003E00049F0029759F008958430910569F0069715
:1003F000D9F008950E94560115B808950E944A0147
:10040000089581E085B90895E0910001F0E0EE0FD4
:10041000FF1FEE0FFF1FEF5FFE4F60817181828132
:1004200093810E94DC000895E0910001F0E0EE0F5E
:10043000FF1FEE0FFF1FEF5FFE4F60817181828112
:1004400093810E94DC00089511B88FEF82B984B9BE
:1004500015B80E944A0110922801109227010E94AB
:100460005B01FDCFEE0FFF1F0024001C0BBE0790A9
:10047000F691E02D09949CD008F481E008950CD009
:10048000D2C0CAD040F0C1D030F021F45F3F19F0A3
:10049000B3C05111FCC0B6C0D7D098F39923C9F3AB
:1004A0005523B1F3951B550BBB27AA27621773077A
:1004B000840738F09F5F5F4F220F331F441FAA1F2E
:1004C000A9F333D00E2E3AF0E0E830D091505040EE
:1004D000E695001CCAF729D0FE2F27D0660F771F9C
:1004E000881FBB1F261737074807AB07B0E809F07E
:1004F000BB0B802DBF01FF2793585F4F2AF09E3F13
:10050000510568F079C0C3C05F3FECF3983EDCF35F
:10051000869577956795B795F7959F5FC9F7880F8B
:10052000911D9695879597F90895E1E0660F771FDD
:10053000881FBB1F621773078407BA0720F0621B6E
:10054000730B840BBA0BEE1F88F7E095089504D067
:100550006894B1119CC008957FD088F09F5790F0A7
:10056000B92F9927B751A0F0D1F0660F771F881FD8
:10057000991F1AF0BA95C9F712C0B13081F086D030
:10058000B1E0089583C0672F782F8827B85F39F0CE
:10059000B93FCCF3869577956795B395D9F73EF437
:1005A00090958095709561957F4F8F4F9F4F0895DF
:1005B000990F0008550FAA0BE0E8FEEF1616170674
:1005C000E807F907C0F012161306E407F50798F0DC
:1005D000621B730B840B950B39F40A2661F0232BF5
:1005E000242B252B21F408950A2609F4A140A69571
:1005F0008FEF811D811D089597F99F6780E870E056
:1006000060E008959FEF80EC089500240A94161688
:10061000170618060906089500240A9412161306F0
:10062000140605060895092E0394000C11F488237E
:1006300052F0BB0F40F4BF2B11F460FF04C06F5F9A
:100640007F4F8F4F9F4F089557FD9058440F551F70
:1006500059F05F3F71F04795880F97FB991F61F044
:100660009F3F79F087950895121613061406551FBB
:10067000F2CF4695F1DF08C0161617061806991F27
:10068000F1CF86957105610508940895E894BB271C
:1006900066277727CB0197F908958ADF08F48FEF53
:1006A00008950BD0C0CFB1DF28F0B6DF18F0952346
:1006B00009F0A2CFA7CF1124EACFC6DFA0F3959F00
:1006C000D1F3950F50E0551F629FF001729FBB2739
:1006D000F00DB11D639FAA27F00DB11DAA1F649FE5
:1006E0006627B00DA11D661F829F2227B00DA11D98
:1006F000621F739FB00DA11D621F839FA00D611D1E
:10070000221F749F3327A00D611D231F849F600D3E
:10071000211D822F762F6A2F11249F5750408AF077
:10072000E1F088234AF0EE0FFF1FBB1F661F771F03
:10073000881F91505040A9F79E3F510570F05CCF43
:10074000A6CF5F3FECF3983EDCF3869577956795EF
:10075000B795F795E7959F5FC1F7FE2B880F911D21
:0C0760009695879597F90895F894FFCFBF
:10076C0004A4D082437BD49243A4D0A443719DAE05
:10077C00430000C4430000DC43A4F0F64300D00265
:02078C00440027
:00000001FF
