:100000000C944D000C946C000C946C000C946C00DF
:100010000C946C000C946C000C946C000C946C00B0
:100020000C946C000C946C000C946C000C946C00A0
:100030000C946C000C94AA000C946C000C946C0052
:100040000C946C000C946C000C946C000C946C0080
:100050000C946C000C946C000C946C000C946C0070
:100060000C946C000C946C000C946C000C946C0060
:100070000C946C000C946C000C946C000C946C0050
:100080000C946C000C946C000C946C0016012F0105
:100090001D01530141017701650111241FBECFEFFE
:1000A000D0E4DEBFCDBF11E0A0E0B1E0E4ECF3E0CE
:1000B00000E00BBF02C007900D92A231B107D9F743
:1000C00011E0A2E1B1E001C01D92AB31B107E1F74F
:1000D0000E94B5010C94E0010C940000CF93C82F4E
:1000E0008A3019F48DE00E946E009091C00095FF57
:1000F000FCCFC093C60080E090E0CF9108958BE0E4
:10010000809381008DE790E0909389008093880030
:1001100082E080936F00109285001092840080919D
:10012000000190910101A0910201B091030180931F
:10013000140190931501A0931601B09317018FB786
:1001400080688FBF089510928100089581E08093A8
:10015000180108951F920F920FB60F9211240BB63B
:100160000F922F933F934F935F936F937F938F9350
:100170009F93AF93BF93EF93FF938091140190915E
:100180001501A0911601B09117010197A109B109BC
:100190008093140190931501A0931601B093170159
:1001A000892B8A2B8B2B91F40E94A6008091000151
:1001B00090910101A0910201B0910301809314017B
:1001C00090931501A0931601B0931701FF91EF9141
:1001D000BF91AF919F918F917F916F915F914F915F
:1001E0003F912F910F900BBE0F900FBE0F901F905D
:1001F0001895609300017093010180930201909320
:10020000030160931401709315018093160190937C
:1002100017010895E0911901F0911A01E730F105F5
:1002200008F076C0EA5BFF4F0C94D70182E090E0C3
:1002300090931A01809319016BC080911201882359
:1002400039F081E090E090931A018093190160C029
:1002500084E090E090931A018093190159C0809135
:100260001201882339F082E090E090931A01809384
:1002700019014EC081E090E090931A01809319011A
:1002800047C080911201882339F083E090E0909379
:100290001A01809319013CC086E090E090931A0106
:1002A0008093190135C080911201882339F084E0D0
:1002B00090E090931A01809319012AC083E090E0A6
:1002C00090931A018093190123C080911201882311
:1002D00039F085E090E090931A018093190118C0DD
:1002E00082E090E090931A018093190111C08091EF
:1002F0001201882339F086E090E090931A018093F0
:10030000190106C085E090E090931A0180931901CD
:100310008091190190911A0183309105D1F030F448
:100320008130910571F0029741F008958530910573
:10033000C1F058F0069789F0089581E08093130189
:10034000089581E080931301089582E08093130162
:10035000089582E080931301089584E0809313014F
:10036000089584E080931301089511B88FEF82B946
:1003700084B915B810921A01109219016CE271E05B
:1003800080E090E00E94F9000E947F0080B180959B
:100390008170809312010E940A01809118018823C4
:1003A000E1F3109218018091130185B9EFCFEE0FA0
:1003B000FF1F0024001C0BBE0790F691E02D09944E
:0403C000F894FFCFDF
:1003C4000100000000000002000000006E000000B8
:0203D400000027
:00000001FF
